{
  "contractName": "VehicleVerification",
  "abi": [
    {
      "constant": true,
      "inputs": [
        {
          "name": "",
          "type": "bytes32"
        }
      ],
      "name": "idToShowRoomData",
      "outputs": [
        {
          "name": "vin",
          "type": "bytes32"
        },
        {
          "name": "ownerDetail",
          "type": "bytes32"
        },
        {
          "name": "modelDetail",
          "type": "bytes32"
        },
        {
          "name": "carCost",
          "type": "bytes32"
        },
        {
          "name": "carLoanOrBankDetail",
          "type": "bytes32"
        },
        {
          "name": "showroomName",
          "type": "bytes32"
        },
        {
          "name": "showroomAddress",
          "type": "bytes32"
        },
        {
          "name": "showroomId",
          "type": "bytes32"
        },
        {
          "name": "issuedDate",
          "type": "uint256"
        },
        {
          "name": "additionalDetail",
          "type": "bytes32"
        }
      ],
      "payable": false,
      "stateMutability": "view",
      "type": "function"
    },
    {
      "constant": true,
      "inputs": [
        {
          "name": "",
          "type": "bytes32"
        },
        {
          "name": "",
          "type": "uint256"
        }
      ],
      "name": "vinToMotorDeptDataId",
      "outputs": [
        {
          "name": "",
          "type": "bytes32"
        }
      ],
      "payable": false,
      "stateMutability": "view",
      "type": "function"
    },
    {
      "constant": true,
      "inputs": [
        {
          "name": "",
          "type": "uint256"
        }
      ],
      "name": "motorDeptDataIds",
      "outputs": [
        {
          "name": "",
          "type": "bytes32"
        }
      ],
      "payable": false,
      "stateMutability": "view",
      "type": "function"
    },
    {
      "constant": true,
      "inputs": [
        {
          "name": "",
          "type": "address"
        }
      ],
      "name": "InsuranceOwners",
      "outputs": [
        {
          "name": "",
          "type": "bool"
        }
      ],
      "payable": false,
      "stateMutability": "view",
      "type": "function"
    },
    {
      "constant": true,
      "inputs": [
        {
          "name": "",
          "type": "bytes32"
        }
      ],
      "name": "idToMechanicData",
      "outputs": [
        {
          "name": "vin",
          "type": "bytes32"
        },
        {
          "name": "shopId",
          "type": "bytes32"
        },
        {
          "name": "shopName",
          "type": "bytes32"
        },
        {
          "name": "shopAddress",
          "type": "bytes32"
        },
        {
          "name": "carDetail",
          "type": "bytes32"
        },
        {
          "name": "workDescription",
          "type": "bytes32"
        },
        {
          "name": "moneyCharged",
          "type": "bytes32"
        },
        {
          "name": "typeOfWork",
          "type": "bytes32"
        },
        {
          "name": "issuedDate",
          "type": "uint256"
        },
        {
          "name": "additionalDetail",
          "type": "bytes32"
        }
      ],
      "payable": false,
      "stateMutability": "view",
      "type": "function"
    },
    {
      "constant": true,
      "inputs": [
        {
          "name": "",
          "type": "bytes32"
        },
        {
          "name": "",
          "type": "uint256"
        }
      ],
      "name": "vinToShowroomDataId",
      "outputs": [
        {
          "name": "",
          "type": "bytes32"
        }
      ],
      "payable": false,
      "stateMutability": "view",
      "type": "function"
    },
    {
      "constant": false,
      "inputs": [],
      "name": "renounceOwnership",
      "outputs": [],
      "payable": false,
      "stateMutability": "nonpayable",
      "type": "function"
    },
    {
      "constant": true,
      "inputs": [
        {
          "name": "",
          "type": "address"
        }
      ],
      "name": "ShowroomOwners",
      "outputs": [
        {
          "name": "",
          "type": "bool"
        }
      ],
      "payable": false,
      "stateMutability": "view",
      "type": "function"
    },
    {
      "constant": true,
      "inputs": [
        {
          "name": "",
          "type": "bytes32"
        }
      ],
      "name": "idToMotorDeptData",
      "outputs": [
        {
          "name": "vin",
          "type": "bytes32"
        },
        {
          "name": "ownerName",
          "type": "bytes32"
        },
        {
          "name": "regId",
          "type": "bytes32"
        },
        {
          "name": "milesOnCar",
          "type": "bytes32"
        },
        {
          "name": "modelDetail",
          "type": "bytes32"
        },
        {
          "name": "numberPlate",
          "type": "bytes32"
        },
        {
          "name": "motorDeptCity",
          "type": "bytes32"
        },
        {
          "name": "motorDeptAddress",
          "type": "bytes32"
        },
        {
          "name": "issuedDate",
          "type": "uint256"
        },
        {
          "name": "additionalDetail",
          "type": "bytes32"
        }
      ],
      "payable": false,
      "stateMutability": "view",
      "type": "function"
    },
    {
      "constant": true,
      "inputs": [],
      "name": "owner",
      "outputs": [
        {
          "name": "",
          "type": "address"
        }
      ],
      "payable": false,
      "stateMutability": "view",
      "type": "function"
    },
    {
      "constant": true,
      "inputs": [],
      "name": "isOwner",
      "outputs": [
        {
          "name": "",
          "type": "bool"
        }
      ],
      "payable": false,
      "stateMutability": "view",
      "type": "function"
    },
    {
      "constant": true,
      "inputs": [
        {
          "name": "",
          "type": "bytes32"
        },
        {
          "name": "",
          "type": "uint256"
        }
      ],
      "name": "vinToInsuranceDataId",
      "outputs": [
        {
          "name": "",
          "type": "bytes32"
        }
      ],
      "payable": false,
      "stateMutability": "view",
      "type": "function"
    },
    {
      "constant": true,
      "inputs": [
        {
          "name": "",
          "type": "address"
        }
      ],
      "name": "MotorDeptOwners",
      "outputs": [
        {
          "name": "",
          "type": "bool"
        }
      ],
      "payable": false,
      "stateMutability": "view",
      "type": "function"
    },
    {
      "constant": true,
      "inputs": [
        {
          "name": "",
          "type": "bytes32"
        },
        {
          "name": "",
          "type": "uint256"
        }
      ],
      "name": "vinToMechanicDataId",
      "outputs": [
        {
          "name": "",
          "type": "bytes32"
        }
      ],
      "payable": false,
      "stateMutability": "view",
      "type": "function"
    },
    {
      "constant": true,
      "inputs": [
        {
          "name": "",
          "type": "bytes32"
        }
      ],
      "name": "idToInsuranceData",
      "outputs": [
        {
          "name": "vin",
          "type": "bytes32"
        },
        {
          "name": "insuranceNumber",
          "type": "bytes32"
        },
        {
          "name": "numOfInsurance",
          "type": "bytes32"
        },
        {
          "name": "insuranceDetail",
          "type": "bytes32"
        },
        {
          "name": "insuranceId",
          "type": "bytes32"
        },
        {
          "name": "insuranceCompanyName",
          "type": "bytes32"
        },
        {
          "name": "insuranceCompanyAddress",
          "type": "bytes32"
        },
        {
          "name": "issuedDate",
          "type": "uint256"
        },
        {
          "name": "additionalDetail",
          "type": "bytes32"
        }
      ],
      "payable": false,
      "stateMutability": "view",
      "type": "function"
    },
    {
      "constant": true,
      "inputs": [
        {
          "name": "",
          "type": "uint256"
        }
      ],
      "name": "showroomDataIds",
      "outputs": [
        {
          "name": "",
          "type": "bytes32"
        }
      ],
      "payable": false,
      "stateMutability": "view",
      "type": "function"
    },
    {
      "constant": true,
      "inputs": [
        {
          "name": "",
          "type": "uint256"
        }
      ],
      "name": "mechanicDataIds",
      "outputs": [
        {
          "name": "",
          "type": "bytes32"
        }
      ],
      "payable": false,
      "stateMutability": "view",
      "type": "function"
    },
    {
      "constant": false,
      "inputs": [
        {
          "name": "newOwner",
          "type": "address"
        }
      ],
      "name": "transferOwnership",
      "outputs": [],
      "payable": false,
      "stateMutability": "nonpayable",
      "type": "function"
    },
    {
      "constant": true,
      "inputs": [
        {
          "name": "",
          "type": "uint256"
        }
      ],
      "name": "insuranceDataIds",
      "outputs": [
        {
          "name": "",
          "type": "bytes32"
        }
      ],
      "payable": false,
      "stateMutability": "view",
      "type": "function"
    },
    {
      "constant": true,
      "inputs": [
        {
          "name": "",
          "type": "address"
        }
      ],
      "name": "MechanicOwners",
      "outputs": [
        {
          "name": "",
          "type": "bool"
        }
      ],
      "payable": false,
      "stateMutability": "view",
      "type": "function"
    },
    {
      "anonymous": false,
      "inputs": [
        {
          "indexed": true,
          "name": "previousOwner",
          "type": "address"
        }
      ],
      "name": "OwnershipRenounced",
      "type": "event"
    },
    {
      "anonymous": false,
      "inputs": [
        {
          "indexed": true,
          "name": "previousOwner",
          "type": "address"
        },
        {
          "indexed": true,
          "name": "newOwner",
          "type": "address"
        }
      ],
      "name": "OwnershipTransferred",
      "type": "event"
    },
    {
      "constant": false,
      "inputs": [
        {
          "name": "_addr",
          "type": "address"
        }
      ],
      "name": "addShowroomOwner",
      "outputs": [],
      "payable": false,
      "stateMutability": "nonpayable",
      "type": "function"
    },
    {
      "constant": false,
      "inputs": [
        {
          "name": "_addr",
          "type": "address"
        }
      ],
      "name": "addInsuranceOwner",
      "outputs": [],
      "payable": false,
      "stateMutability": "nonpayable",
      "type": "function"
    },
    {
      "constant": false,
      "inputs": [
        {
          "name": "_addr",
          "type": "address"
        }
      ],
      "name": "addMotorDeptOwner",
      "outputs": [],
      "payable": false,
      "stateMutability": "nonpayable",
      "type": "function"
    },
    {
      "constant": false,
      "inputs": [
        {
          "name": "_addr",
          "type": "address"
        }
      ],
      "name": "addMechanicOwner",
      "outputs": [],
      "payable": false,
      "stateMutability": "nonpayable",
      "type": "function"
    },
    {
      "constant": false,
      "inputs": [
        {
          "name": "_addr",
          "type": "address"
        }
      ],
      "name": "removeShowroomOwner",
      "outputs": [],
      "payable": false,
      "stateMutability": "nonpayable",
      "type": "function"
    },
    {
      "constant": false,
      "inputs": [
        {
          "name": "_addr",
          "type": "address"
        }
      ],
      "name": "removeInsuranceOwner",
      "outputs": [],
      "payable": false,
      "stateMutability": "nonpayable",
      "type": "function"
    },
    {
      "constant": false,
      "inputs": [
        {
          "name": "_addr",
          "type": "address"
        }
      ],
      "name": "removeMotorDeptOwner",
      "outputs": [],
      "payable": false,
      "stateMutability": "nonpayable",
      "type": "function"
    },
    {
      "constant": false,
      "inputs": [
        {
          "name": "_addr",
          "type": "address"
        }
      ],
      "name": "removeMechanicOwner",
      "outputs": [],
      "payable": false,
      "stateMutability": "nonpayable",
      "type": "function"
    },
    {
      "constant": false,
      "inputs": [
        {
          "name": "_vin",
          "type": "bytes32"
        },
        {
          "name": "_shopId",
          "type": "bytes32"
        },
        {
          "name": "_shopName",
          "type": "bytes32"
        },
        {
          "name": "_shopAddress",
          "type": "bytes32"
        },
        {
          "name": "_carDetail",
          "type": "bytes32"
        },
        {
          "name": "_workDescription",
          "type": "bytes32"
        },
        {
          "name": "_moneyCharged",
          "type": "bytes32"
        },
        {
          "name": "_typeOfWork",
          "type": "bytes32"
        },
        {
          "name": "_issuedDate",
          "type": "uint256"
        },
        {
          "name": "_additionalDetail",
          "type": "bytes32"
        }
      ],
      "name": "addMechanicData",
      "outputs": [
        {
          "name": "",
          "type": "bytes32"
        }
      ],
      "payable": false,
      "stateMutability": "nonpayable",
      "type": "function"
    },
    {
      "constant": false,
      "inputs": [
        {
          "name": "_vin",
          "type": "bytes32"
        },
        {
          "name": "_ownerName",
          "type": "bytes32"
        },
        {
          "name": "_regId",
          "type": "bytes32"
        },
        {
          "name": "_milesOnCar",
          "type": "bytes32"
        },
        {
          "name": "_modelDetail",
          "type": "bytes32"
        },
        {
          "name": "_numberPlate",
          "type": "bytes32"
        },
        {
          "name": "_motorDeptCity",
          "type": "bytes32"
        },
        {
          "name": "_motorDeptAddress",
          "type": "bytes32"
        },
        {
          "name": "_issuedDate",
          "type": "uint256"
        },
        {
          "name": "_additionalDetail",
          "type": "bytes32"
        }
      ],
      "name": "addMotorDeptData",
      "outputs": [
        {
          "name": "",
          "type": "bytes32"
        }
      ],
      "payable": false,
      "stateMutability": "nonpayable",
      "type": "function"
    },
    {
      "constant": false,
      "inputs": [
        {
          "name": "_vin",
          "type": "bytes32"
        },
        {
          "name": "_ownerDetail",
          "type": "bytes32"
        },
        {
          "name": "_modelDetail",
          "type": "bytes32"
        },
        {
          "name": "_carCost",
          "type": "bytes32"
        },
        {
          "name": "_carLoanOrBankDetail",
          "type": "bytes32"
        },
        {
          "name": "_showroomName",
          "type": "bytes32"
        },
        {
          "name": "_showroomAddress",
          "type": "bytes32"
        },
        {
          "name": "_showroomId",
          "type": "bytes32"
        },
        {
          "name": "_issuedDate",
          "type": "uint256"
        },
        {
          "name": "_additionalDetail",
          "type": "bytes32"
        }
      ],
      "name": "addShowroomData",
      "outputs": [
        {
          "name": "",
          "type": "bytes32"
        }
      ],
      "payable": false,
      "stateMutability": "nonpayable",
      "type": "function"
    },
    {
      "constant": false,
      "inputs": [
        {
          "name": "_vin",
          "type": "bytes32"
        },
        {
          "name": "_insuranceNumber",
          "type": "bytes32"
        },
        {
          "name": "_numOfInsurance",
          "type": "bytes32"
        },
        {
          "name": "_insuranceDetail",
          "type": "bytes32"
        },
        {
          "name": "_insuranceId",
          "type": "bytes32"
        },
        {
          "name": "_insuranceCompanyName",
          "type": "bytes32"
        },
        {
          "name": "_insuranceCompanyAddress",
          "type": "bytes32"
        },
        {
          "name": "_issuedDate",
          "type": "uint256"
        },
        {
          "name": "_additionalDetail",
          "type": "bytes32"
        }
      ],
      "name": "addInsuranceData",
      "outputs": [
        {
          "name": "",
          "type": "bytes32"
        }
      ],
      "payable": false,
      "stateMutability": "nonpayable",
      "type": "function"
    },
    {
      "constant": true,
      "inputs": [
        {
          "name": "_vin",
          "type": "bytes32"
        }
      ],
      "name": "getMechanicDataByVin1",
      "outputs": [
        {
          "name": "",
          "type": "bytes32[]"
        },
        {
          "name": "",
          "type": "bytes32[]"
        },
        {
          "name": "",
          "type": "bytes32[]"
        },
        {
          "name": "",
          "type": "bytes32[]"
        },
        {
          "name": "",
          "type": "bytes32[]"
        }
      ],
      "payable": false,
      "stateMutability": "view",
      "type": "function"
    },
    {
      "constant": true,
      "inputs": [
        {
          "name": "_vin",
          "type": "bytes32"
        }
      ],
      "name": "getMechanicDataByVin2",
      "outputs": [
        {
          "name": "",
          "type": "bytes32[]"
        },
        {
          "name": "",
          "type": "bytes32[]"
        },
        {
          "name": "",
          "type": "bytes32[]"
        },
        {
          "name": "",
          "type": "uint256[]"
        },
        {
          "name": "",
          "type": "bytes32[]"
        }
      ],
      "payable": false,
      "stateMutability": "view",
      "type": "function"
    },
    {
      "constant": true,
      "inputs": [
        {
          "name": "_vin",
          "type": "bytes32"
        }
      ],
      "name": "getInsuranceDataByVin1",
      "outputs": [
        {
          "name": "",
          "type": "bytes32[]"
        },
        {
          "name": "",
          "type": "bytes32[]"
        },
        {
          "name": "",
          "type": "bytes32[]"
        },
        {
          "name": "",
          "type": "bytes32[]"
        },
        {
          "name": "",
          "type": "bytes32[]"
        }
      ],
      "payable": false,
      "stateMutability": "view",
      "type": "function"
    },
    {
      "constant": true,
      "inputs": [
        {
          "name": "_vin",
          "type": "bytes32"
        }
      ],
      "name": "getInsuranceDataByVin2",
      "outputs": [
        {
          "name": "",
          "type": "bytes32[]"
        },
        {
          "name": "",
          "type": "bytes32[]"
        },
        {
          "name": "",
          "type": "uint256[]"
        },
        {
          "name": "",
          "type": "bytes32[]"
        }
      ],
      "payable": false,
      "stateMutability": "view",
      "type": "function"
    },
    {
      "constant": true,
      "inputs": [
        {
          "name": "_vin",
          "type": "bytes32"
        }
      ],
      "name": "getMotorDeptDataByVin1",
      "outputs": [
        {
          "name": "",
          "type": "bytes32[]"
        },
        {
          "name": "",
          "type": "bytes32[]"
        },
        {
          "name": "",
          "type": "bytes32[]"
        },
        {
          "name": "",
          "type": "bytes32[]"
        },
        {
          "name": "",
          "type": "bytes32[]"
        }
      ],
      "payable": false,
      "stateMutability": "view",
      "type": "function"
    },
    {
      "constant": true,
      "inputs": [
        {
          "name": "_vin",
          "type": "bytes32"
        }
      ],
      "name": "getMotorDeptDataByVin2",
      "outputs": [
        {
          "name": "",
          "type": "bytes32[]"
        },
        {
          "name": "",
          "type": "bytes32[]"
        },
        {
          "name": "",
          "type": "bytes32[]"
        },
        {
          "name": "",
          "type": "uint256[]"
        },
        {
          "name": "",
          "type": "bytes32[]"
        }
      ],
      "payable": false,
      "stateMutability": "view",
      "type": "function"
    },
    {
      "constant": true,
      "inputs": [
        {
          "name": "_vin",
          "type": "bytes32"
        }
      ],
      "name": "getShowroomDataByVin1",
      "outputs": [
        {
          "name": "",
          "type": "bytes32[]"
        },
        {
          "name": "",
          "type": "bytes32[]"
        },
        {
          "name": "",
          "type": "bytes32[]"
        },
        {
          "name": "",
          "type": "bytes32[]"
        },
        {
          "name": "",
          "type": "bytes32[]"
        }
      ],
      "payable": false,
      "stateMutability": "view",
      "type": "function"
    },
    {
      "constant": true,
      "inputs": [
        {
          "name": "_vin",
          "type": "bytes32"
        }
      ],
      "name": "getShowroomDataByVin2",
      "outputs": [
        {
          "name": "",
          "type": "bytes32[]"
        },
        {
          "name": "",
          "type": "bytes32[]"
        },
        {
          "name": "",
          "type": "bytes32[]"
        },
        {
          "name": "",
          "type": "uint256[]"
        },
        {
          "name": "",
          "type": "bytes32[]"
        }
      ],
      "payable": false,
      "stateMutability": "view",
      "type": "function"
    }
  ],
  "bytecode": "0x6080604052336000806101000a81548173ffffffffffffffffffffffffffffffffffffffff021916908373ffffffffffffffffffffffffffffffffffffffff160217905550614d0c806100536000396000f3006080604052600436106101ee576000357c0100000000000000000000000000000000000000000000000000000000900463ffffffff16806302f72066146101f357806308846740146103995780630bc700151461053f57806313b58ae01461060b5780631876dd1f146106625780631c41feaa146106ab57806321afdbfd146107725780632dde98eb146107cd578063377fb32b1461089457806339606a17146109f25780633fe3ee0314610abe57806344758ba914610b015780634db54a2914610b58578063531eae3614610b9b57806359659bdb14610d4157806367330a5d14610e08578063715018a614610fae5780637aba198114610fc55780637b95a25c1461116b57806382798ba81461122457806385ee91e31461127f5780638da5cb5b1461134b5780638dc72fa4146113a25780638f32d59b146113e557806395e4d8f9146114145780639908e4281461146b5780639dea7c88146114c6578063a0a2d7d014611509578063adb7930f146116af578063b74279d3146116f2578063be0507ef14611749578063c9301a2714611806578063dc99fb5914611849578063ee955b511461188c578063ef51a0d8146118d5578063f02073a11461191e578063f2fde38b14611961578063fd5fd672146119a4578063fe403859146119ed578063ff91726314611b93575b600080fd5b3480156101ff57600080fd5b506102226004803603810190808035600019169060200190929190505050611bee565b60405180806020018060200180602001806020018060200186810386528b818151815260200191508051906020019060200280838360005b8381101561027557808201518184015260208101905061025a565b5050505090500186810385528a818151815260200191508051906020019060200280838360005b838110156102b757808201518184015260208101905061029c565b50505050905001868103845289818151815260200191508051906020019060200280838360005b838110156102f95780820151818401526020810190506102de565b50505050905001868103835288818151815260200191508051906020019060200280838360005b8381101561033b578082015181840152602081019050610320565b50505050905001868103825287818151815260200191508051906020019060200280838360005b8381101561037d578082015181840152602081019050610362565b505050509050019a505050505050505050505060405180910390f35b3480156103a557600080fd5b506103c86004803603810190808035600019169060200190929190505050611f38565b60405180806020018060200180602001806020018060200186810386528b818151815260200191508051906020019060200280838360005b8381101561041b578082015181840152602081019050610400565b5050505090500186810385528a818151815260200191508051906020019060200280838360005b8381101561045d578082015181840152602081019050610442565b50505050905001868103845289818151815260200191508051906020019060200280838360005b8381101561049f578082015181840152602081019050610484565b50505050905001868103835288818151815260200191508051906020019060200280838360005b838110156104e15780820151818401526020810190506104c6565b50505050905001868103825287818151815260200191508051906020019060200280838360005b83811015610523578082015181840152602081019050610508565b505050509050019a505050505050505050505060405180910390f35b34801561054b57600080fd5b5061056e600480360381019080803560001916906020019092919050505061227a565b604051808b600019166000191681526020018a6000191660001916815260200189600019166000191681526020018860001916600019168152602001876000191660001916815260200186600019166000191681526020018560001916600019168152602001846000191660001916815260200183815260200182600019166000191681526020019a505050505050505050505060405180910390f35b34801561061757600080fd5b506106446004803603810190808035600019169060200190929190803590602001909291905050506122ce565b60405180826000191660001916815260200191505060405180910390f35b34801561066e57600080fd5b5061068d600480360381019080803590602001909291905050506122fe565b60405180826000191660001916815260200191505060405180910390f35b3480156106b757600080fd5b5061075460048036038101908080356000191690602001909291908035600019169060200190929190803560001916906020019092919080356000191690602001909291908035600019169060200190929190803560001916906020019092919080356000191690602001909291908035600019169060200190929190803590602001909291908035600019169060200190929190505050612321565b60405180826000191660001916815260200191505060405180910390f35b34801561077e57600080fd5b506107b3600480360381019080803573ffffffffffffffffffffffffffffffffffffffff16906020019092919050505061265e565b604051808215151515815260200191505060405180910390f35b3480156107d957600080fd5b506108766004803603810190808035600019169060200190929190803560001916906020019092919080356000191690602001909291908035600019169060200190929190803560001916906020019092919080356000191690602001909291908035600019169060200190929190803560001916906020019092919080359060200190929190803560001916906020019092919050505061267e565b60405180826000191660001916815260200191505060405180910390f35b3480156108a057600080fd5b506108c360048036038101908080356000191690602001909291905050506129bb565b6040518080602001806020018060200180602001858103855289818151815260200191508051906020019060200280838360005b838110156109125780820151818401526020810190506108f7565b50505050905001858103845288818151815260200191508051906020019060200280838360005b83811015610954578082015181840152602081019050610939565b50505050905001858103835287818151815260200191508051906020019060200280838360005b8381101561099657808201518184015260208101905061097b565b50505050905001858103825286818151815260200191508051906020019060200280838360005b838110156109d85780820151818401526020810190506109bd565b505050509050019850505050505050505060405180910390f35b3480156109fe57600080fd5b50610a216004803603810190808035600019169060200190929190505050612c7f565b604051808b600019166000191681526020018a6000191660001916815260200189600019166000191681526020018860001916600019168152602001876000191660001916815260200186600019166000191681526020018560001916600019168152602001846000191660001916815260200183815260200182600019166000191681526020019a505050505050505050505060405180910390f35b348015610aca57600080fd5b50610aff600480360381019080803573ffffffffffffffffffffffffffffffffffffffff169060200190929190505050612cd3565b005b348015610b0d57600080fd5b50610b3a600480360381019080803560001916906020019092919080359060200190929190505050612d41565b60405180826000191660001916815260200191505060405180910390f35b348015610b6457600080fd5b50610b99600480360381019080803573ffffffffffffffffffffffffffffffffffffffff169060200190929190505050612d71565b005b348015610ba757600080fd5b50610bca6004803603810190808035600019169060200190929190505050612ddf565b60405180806020018060200180602001806020018060200186810386528b818151815260200191508051906020019060200280838360005b83811015610c1d578082015181840152602081019050610c02565b5050505090500186810385528a818151815260200191508051906020019060200280838360005b83811015610c5f578082015181840152602081019050610c44565b50505050905001868103845289818151815260200191508051906020019060200280838360005b83811015610ca1578082015181840152602081019050610c86565b50505050905001868103835288818151815260200191508051906020019060200280838360005b83811015610ce3578082015181840152602081019050610cc8565b50505050905001868103825287818151815260200191508051906020019060200280838360005b83811015610d25578082015181840152602081019050610d0a565b505050509050019a505050505050505050505060405180910390f35b348015610d4d57600080fd5b50610dea60048036038101908080356000191690602001909291908035600019169060200190929190803560001916906020019092919080356000191690602001909291908035600019169060200190929190803560001916906020019092919080356000191690602001909291908035600019169060200190929190803590602001909291908035600019169060200190929190505050613121565b60405180826000191660001916815260200191505060405180910390f35b348015610e1457600080fd5b50610e37600480360381019080803560001916906020019092919050505061345e565b60405180806020018060200180602001806020018060200186810386528b818151815260200191508051906020019060200280838360005b83811015610e8a578082015181840152602081019050610e6f565b5050505090500186810385528a818151815260200191508051906020019060200280838360005b83811015610ecc578082015181840152602081019050610eb1565b50505050905001868103845289818151815260200191508051906020019060200280838360005b83811015610f0e578082015181840152602081019050610ef3565b50505050905001868103835288818151815260200191508051906020019060200280838360005b83811015610f50578082015181840152602081019050610f35565b50505050905001868103825287818151815260200191508051906020019060200280838360005b83811015610f92578082015181840152602081019050610f77565b505050509050019a505050505050505050505060405180910390f35b348015610fba57600080fd5b50610fc36137a8565b005b348015610fd157600080fd5b50610ff46004803603810190808035600019169060200190929190505050613862565b60405180806020018060200180602001806020018060200186810386528b818151815260200191508051906020019060200280838360005b8381101561104757808201518184015260208101905061102c565b5050505090500186810385528a818151815260200191508051906020019060200280838360005b8381101561108957808201518184015260208101905061106e565b50505050905001868103845289818151815260200191508051906020019060200280838360005b838110156110cb5780820151818401526020810190506110b0565b50505050905001868103835288818151815260200191508051906020019060200280838360005b8381101561110d5780820151818401526020810190506110f2565b50505050905001868103825287818151815260200191508051906020019060200280838360005b8381101561114f578082015181840152602081019050611134565b505050509050019a505050505050505050505060405180910390f35b34801561117757600080fd5b506112066004803603810190808035600019169060200190929190803560001916906020019092919080356000191690602001909291908035600019169060200190929190803560001916906020019092919080356000191690602001909291908035600019169060200190929190803590602001909291908035600019169060200190929190505050613bac565b60405180826000191660001916815260200191505060405180910390f35b34801561123057600080fd5b50611265600480360381019080803573ffffffffffffffffffffffffffffffffffffffff169060200190929190505050613ebd565b604051808215151515815260200191505060405180910390f35b34801561128b57600080fd5b506112ae6004803603810190808035600019169060200190929190505050613edd565b604051808b600019166000191681526020018a6000191660001916815260200189600019166000191681526020018860001916600019168152602001876000191660001916815260200186600019166000191681526020018560001916600019168152602001846000191660001916815260200183815260200182600019166000191681526020019a505050505050505050505060405180910390f35b34801561135757600080fd5b50611360613f31565b604051808273ffffffffffffffffffffffffffffffffffffffff1673ffffffffffffffffffffffffffffffffffffffff16815260200191505060405180910390f35b3480156113ae57600080fd5b506113e3600480360381019080803573ffffffffffffffffffffffffffffffffffffffff169060200190929190505050613f5a565b005b3480156113f157600080fd5b506113fa613fc8565b604051808215151515815260200191505060405180910390f35b34801561142057600080fd5b5061144d60048036038101908080356000191690602001909291908035906020019092919050505061401f565b60405180826000191660001916815260200191505060405180910390f35b34801561147757600080fd5b506114ac600480360381019080803573ffffffffffffffffffffffffffffffffffffffff16906020019092919050505061404f565b604051808215151515815260200191505060405180910390f35b3480156114d257600080fd5b50611507600480360381019080803573ffffffffffffffffffffffffffffffffffffffff16906020019092919050505061406f565b005b34801561151557600080fd5b5061153860048036038101908080356000191690602001909291905050506140dd565b60405180806020018060200180602001806020018060200186810386528b818151815260200191508051906020019060200280838360005b8381101561158b578082015181840152602081019050611570565b5050505090500186810385528a818151815260200191508051906020019060200280838360005b838110156115cd5780820151818401526020810190506115b2565b50505050905001868103845289818151815260200191508051906020019060200280838360005b8381101561160f5780820151818401526020810190506115f4565b50505050905001868103835288818151815260200191508051906020019060200280838360005b83811015611651578082015181840152602081019050611636565b50505050905001868103825287818151815260200191508051906020019060200280838360005b83811015611693578082015181840152602081019050611678565b505050509050019a505050505050505050505060405180910390f35b3480156116bb57600080fd5b506116f0600480360381019080803573ffffffffffffffffffffffffffffffffffffffff16906020019092919050505061441f565b005b3480156116fe57600080fd5b5061172b60048036038101908080356000191690602001909291908035906020019092919050505061448c565b60405180826000191660001916815260200191505060405180910390f35b34801561175557600080fd5b5061177860048036038101908080356000191690602001909291905050506144bc565b604051808a600019166000191681526020018960001916600019168152602001886000191660001916815260200187600019166000191681526020018660001916600019168152602001856000191660001916815260200184600019166000191681526020018381526020018260001916600019168152602001995050505050505050505060405180910390f35b34801561181257600080fd5b50611847600480360381019080803573ffffffffffffffffffffffffffffffffffffffff16906020019092919050505061450a565b005b34801561185557600080fd5b5061188a600480360381019080803573ffffffffffffffffffffffffffffffffffffffff169060200190929190505050614578565b005b34801561189857600080fd5b506118b7600480360381019080803590602001909291905050506145e6565b60405180826000191660001916815260200191505060405180910390f35b3480156118e157600080fd5b5061190060048036038101908080359060200190929190505050614609565b60405180826000191660001916815260200191505060405180910390f35b34801561192a57600080fd5b5061195f600480360381019080803573ffffffffffffffffffffffffffffffffffffffff16906020019092919050505061462c565b005b34801561196d57600080fd5b506119a2600480360381019080803573ffffffffffffffffffffffffffffffffffffffff16906020019092919050505061469a565b005b3480156119b057600080fd5b506119cf600480360381019080803590602001909291905050506146b9565b60405180826000191660001916815260200191505060405180910390f35b3480156119f957600080fd5b50611a1c60048036038101908080356000191690602001909291905050506146dc565b60405180806020018060200180602001806020018060200186810386528b818151815260200191508051906020019060200280838360005b83811015611a6f578082015181840152602081019050611a54565b5050505090500186810385528a818151815260200191508051906020019060200280838360005b83811015611ab1578082015181840152602081019050611a96565b50505050905001868103845289818151815260200191508051906020019060200280838360005b83811015611af3578082015181840152602081019050611ad8565b50505050905001868103835288818151815260200191508051906020019060200280838360005b83811015611b35578082015181840152602081019050611b1a565b50505050905001868103825287818151815260200191508051906020019060200280838360005b83811015611b77578082015181840152602081019050611b5c565b505050509050019a505050505050505050505060405180910390f35b348015611b9f57600080fd5b50611bd4600480360381019080803573ffffffffffffffffffffffffffffffffffffffff169060200190929190505050614a14565b604051808215151515815260200191505060405180910390f35b6060806060806060600060608060608060606000611c0a614b2e565b600c60008f6000191660001916815260200190815260200160002097508780549050604051908082528060200260200182016040528015611c5a5781602001602082028038833980820191505090505b5096508780549050604051908082528060200260200182016040528015611c905781602001602082028038833980820191505090505b5095508780549050604051908082528060200260200182016040528015611cc65781602001602082028038833980820191505090505b5094508780549050604051908082528060200260200182016040528015611cfc5781602001602082028038833980820191505090505b5093508780549050604051908082528060200260200182016040528015611d325781602001602082028038833980820191505090505b509250600091505b8780549050821015611f1857600860008984815481101515611d5857fe5b9060005260206000200154600019166000191681526020019081526020016000206101406040519081016040529081600082015460001916600019168152602001600182015460001916600019168152602001600282015460001916600019168152602001600382015460001916600019168152602001600482015460001916600019168152602001600582015460001916600019168152602001600682015460001916600019168152602001600782015460001916600019168152602001600882015481526020016009820154600019166000191681525050905080600001518783815181101515611e4757fe5b90602001906020020190600019169081600019168152505080602001518683815181101515611e7257fe5b90602001906020020190600019169081600019168152505080604001518583815181101515611e9d57fe5b90602001906020020190600019169081600019168152505080606001518483815181101515611ec857fe5b90602001906020020190600019169081600019168152505080608001518383815181101515611ef357fe5b9060200190602002019060001916908160001916815250508180600101925050611d3a565b86868686869c509c509c509c509c50505050505050505091939590929450565b6060806060806060600060608060608060606000611f54614b2e565b600c60008f6000191660001916815260200190815260200160002097508780549050604051908082528060200260200182016040528015611fa45781602001602082028038833980820191505090505b5096508780549050604051908082528060200260200182016040528015611fda5781602001602082028038833980820191505090505b50955087805490506040519080825280602002602001820160405280156120105781602001602082028038833980820191505090505b50945087805490506040519080825280602002602001820160405280156120465781602001602082028038833980820191505090505b509350878054905060405190808252806020026020018201604052801561207c5781602001602082028038833980820191505090505b509250600091505b878054905082101561225a576008600089848154811015156120a257fe5b906000526020600020015460001916600019168152602001908152602001600020610140604051908101604052908160008201546000191660001916815260200160018201546000191660001916815260200160028201546000191660001916815260200160038201546000191660001916815260200160048201546000191660001916815260200160058201546000191660001916815260200160068201546000191660001916815260200160078201546000191660001916815260200160088201548152602001600982015460001916600019168152505090508060a00151878381518110151561219157fe5b9060200190602002019060001916908160001916815250508060c0015186838151811015156121bc57fe5b9060200190602002019060001916908160001916815250508060e0015185838151811015156121e757fe5b906020019060200201906000191690816000191681525050806101000151848381518110151561221357fe5b9060200190602002018181525050806101200151838381518110151561223557fe5b9060200190602002019060001916908160001916815250508180600101925050612084565b86868686869c509c509c509c509c50505050505050505091939590929450565b6005602052806000526040600020600091509050806000015490806001015490806002015490806003015490806004015490806005015490806006015490806007015490806008015490806009015490508a565b600b602052816000526040600020818154811015156122e957fe5b90600052602060002001600091509150505481565b600f8181548110151561230d57fe5b906000526020600020016000915090505481565b60008061232c613fc8565b151561233757600080fd5b60011515600360003373ffffffffffffffffffffffffffffffffffffffff1673ffffffffffffffffffffffffffffffffffffffff16815260200190815260200160002060009054906101000a900460ff16151514151561239657600080fd5b8b8b8b8b8b8b8b8b8b8b604051602001808b600019166000191681526020018a6000191660001916815260200189600019166000191681526020018860001916600019168152602001876000191660001916815260200186600019166000191681526020018560001916600019168152602001846000191660001916815260200183815260200182600019166000191681526020019a50505050505050505050506040516020818303038152906040526040518082805190602001908083835b60208310151561247b5780518252602082019150602081019050602083039250612456565b6001836020036101000a03801982511681845116808217855250505050505090500191505060405180910390209050610140604051908101604052808d6000191681526020018c6000191681526020018b6000191681526020018a600019168152602001896000191681526020018860001916815260200187600019168152602001866000191681526020018581526020018460001916815250600760008360001916600019168152602001908152602001600020600082015181600001906000191690556020820151816001019060001916905560408201518160020190600019169055606082015181600301906000191690556080820151816004019060001916905560a0820151816005019060001916905560c0820151816006019060001916905560e0820151816007019060001916905561010082015181600801556101208201518160090190600019169055905050600b60008d60001916600019168152602001908152602001600020819080600181540180825580915050906001820390600052602060002001600090919290919091509060001916905550600f819080600181540180825580915050906001820390600052602060002001600090919290919091509060001916905550809150509a9950505050505050505050565b60026020528060005260406000206000915054906101000a900460ff1681565b600080612689613fc8565b151561269457600080fd5b60011515600160003373ffffffffffffffffffffffffffffffffffffffff1673ffffffffffffffffffffffffffffffffffffffff16815260200190815260200160002060009054906101000a900460ff1615151415156126f357600080fd5b8b8b8b8b8b8b8b8b8b8b604051602001808b600019166000191681526020018a6000191660001916815260200189600019166000191681526020018860001916600019168152602001876000191660001916815260200186600019166000191681526020018560001916600019168152602001846000191660001916815260200183815260200182600019166000191681526020019a50505050505050505050506040516020818303038152906040526040518082805190602001908083835b6020831015156127d857805182526020820191506020810190506020830392506127b3565b6001836020036101000a03801982511681845116808217855250505050505090500191505060405180910390209050610140604051908101604052808d6000191681526020018c6000191681526020018b6000191681526020018a600019168152602001896000191681526020018860001916815260200187600019168152602001866000191681526020018581526020018460001916815250600560008360001916600019168152602001908152602001600020600082015181600001906000191690556020820151816001019060001916905560408201518160020190600019169055606082015181600301906000191690556080820151816004019060001916905560a0820151816005019060001916905560c0820151816006019060001916905560e0820151816007019060001916905561010082015181600801556101208201518160090190600019169055905050600960008d60001916600019168152602001908152602001600020819080600181540180825580915050906001820390600052602060002001600090919290919091509060001916905550600d819080600181540180825580915050906001820390600052602060002001600090919290919091509060001916905550809150509a9950505050505050505050565b606080606080600060608060608060006129d3614b9d565b600a60008d6000191660001916815260200190815260200160002096508680549050604051908082528060200260200182016040528015612a235781602001602082028038833980820191505090505b5095508680549050604051908082528060200260200182016040528015612a595781602001602082028038833980820191505090505b5094508680549050604051908082528060200260200182016040528015612a8f5781602001602082028038833980820191505090505b5093508680549050604051908082528060200260200182016040528015612ac55781602001602082028038833980820191505090505b509250600091505b8680549050821015612c6557600660008884815481101515612aeb57fe5b906000526020600020015460001916600019168152602001908152602001600020610120604051908101604052908160008201546000191660001916815260200160018201546000191660001916815260200160028201546000191660001916815260200160038201546000191660001916815260200160048201546000191660001916815260200160058201546000191660001916815260200160068201546000191660001916815260200160078201548152602001600882015460001916600019168152505090508060a001518683815181101515612bc857fe5b9060200190602002019060001916908160001916815250508060c001518583815181101515612bf357fe5b9060200190602002019060001916908160001916815250508060e001518483815181101515612c1e57fe5b90602001906020020181815250508061010001518383815181101515612c4057fe5b9060200190602002019060001916908160001916815250508180600101925050612acd565b858585859a509a509a509a50505050505050509193509193565b6008602052806000526040600020600091509050806000015490806001015490806002015490806003015490806004015490806005015490806006015490806007015490806008015490806009015490508a565b612cdb613fc8565b1515612ce657600080fd5b6000600360008373ffffffffffffffffffffffffffffffffffffffff1673ffffffffffffffffffffffffffffffffffffffff16815260200190815260200160002060006101000a81548160ff02191690831515021790555050565b600960205281600052604060002081815481101515612d5c57fe5b90600052602060002001600091509150505481565b612d79613fc8565b1515612d8457600080fd5b6001600360008373ffffffffffffffffffffffffffffffffffffffff1673ffffffffffffffffffffffffffffffffffffffff16815260200190815260200160002060006101000a81548160ff02191690831515021790555050565b6060806060806060600060608060608060606000612dfb614c02565b600960008f6000191660001916815260200190815260200160002097508780549050604051908082528060200260200182016040528015612e4b5781602001602082028038833980820191505090505b5096508780549050604051908082528060200260200182016040528015612e815781602001602082028038833980820191505090505b5095508780549050604051908082528060200260200182016040528015612eb75781602001602082028038833980820191505090505b5094508780549050604051908082528060200260200182016040528015612eed5781602001602082028038833980820191505090505b5093508780549050604051908082528060200260200182016040528015612f235781602001602082028038833980820191505090505b509250600091505b878054905082101561310157600560008984815481101515612f4957fe5b906000526020600020015460001916600019168152602001908152602001600020610140604051908101604052908160008201546000191660001916815260200160018201546000191660001916815260200160028201546000191660001916815260200160038201546000191660001916815260200160048201546000191660001916815260200160058201546000191660001916815260200160068201546000191660001916815260200160078201546000191660001916815260200160088201548152602001600982015460001916600019168152505090508060a00151878381518110151561303857fe5b9060200190602002019060001916908160001916815250508060c00151868381518110151561306357fe5b9060200190602002019060001916908160001916815250508060e00151858381518110151561308e57fe5b90602001906020020190600019169081600019168152505080610100015184838151811015156130ba57fe5b906020019060200201818152505080610120015183838151811015156130dc57fe5b9060200190602002019060001916908160001916815250508180600101925050612f2b565b86868686869c509c509c509c509c50505050505050505091939590929450565b60008061312c613fc8565b151561313757600080fd5b60011515600460003373ffffffffffffffffffffffffffffffffffffffff1673ffffffffffffffffffffffffffffffffffffffff16815260200190815260200160002060009054906101000a900460ff16151514151561319657600080fd5b8b8b8b8b8b8b8b8b8b8b604051602001808b600019166000191681526020018a6000191660001916815260200189600019166000191681526020018860001916600019168152602001876000191660001916815260200186600019166000191681526020018560001916600019168152602001846000191660001916815260200183815260200182600019166000191681526020019a50505050505050505050506040516020818303038152906040526040518082805190602001908083835b60208310151561327b5780518252602082019150602081019050602083039250613256565b6001836020036101000a03801982511681845116808217855250505050505090500191505060405180910390209050610140604051908101604052808d6000191681526020018c6000191681526020018b6000191681526020018a600019168152602001896000191681526020018860001916815260200187600019168152602001866000191681526020018581526020018460001916815250600860008360001916600019168152602001908152602001600020600082015181600001906000191690556020820151816001019060001916905560408201518160020190600019169055606082015181600301906000191690556080820151816004019060001916905560a0820151816005019060001916905560c0820151816006019060001916905560e0820151816007019060001916905561010082015181600801556101208201518160090190600019169055905050600c60008d600019166000191681526020019081526020016000208190806001815401808255809150509060018203906000526020600020016000909192909190915090600019169055506010819080600181540180825580915050906001820390600052602060002001600090919290919091509060001916905550809150509a9950505050505050505050565b606080606080606060006060806060806060600061347a614c71565b600b60008f60001916600019168152602001908152602001600020975087805490506040519080825280602002602001820160405280156134ca5781602001602082028038833980820191505090505b50965087805490506040519080825280602002602001820160405280156135005781602001602082028038833980820191505090505b50955087805490506040519080825280602002602001820160405280156135365781602001602082028038833980820191505090505b509450878054905060405190808252806020026020018201604052801561356c5781602001602082028038833980820191505090505b50935087805490506040519080825280602002602001820160405280156135a25781602001602082028038833980820191505090505b509250600091505b8780549050821015613788576007600089848154811015156135c857fe5b90600052602060002001546000191660001916815260200190815260200160002061014060405190810160405290816000820154600019166000191681526020016001820154600019166000191681526020016002820154600019166000191681526020016003820154600019166000191681526020016004820154600019166000191681526020016005820154600019166000191681526020016006820154600019166000191681526020016007820154600019166000191681526020016008820154815260200160098201546000191660001916815250509050806000015187838151811015156136b757fe5b906020019060200201906000191690816000191681525050806020015186838151811015156136e257fe5b9060200190602002019060001916908160001916815250508060400151858381518110151561370d57fe5b9060200190602002019060001916908160001916815250508060600151848381518110151561373857fe5b9060200190602002019060001916908160001916815250508060800151838381518110151561376357fe5b90602001906020020190600019169081600019168152505081806001019250506135aa565b86868686869c509c509c509c509c50505050505050505091939590929450565b6137b0613fc8565b15156137bb57600080fd5b6000809054906101000a900473ffffffffffffffffffffffffffffffffffffffff1673ffffffffffffffffffffffffffffffffffffffff167ff8df31144d9c2f0f6b59d69b8b98abd5459d07f2742c4df920b25aae33c6482060405160405180910390a260008060006101000a81548173ffffffffffffffffffffffffffffffffffffffff021916908373ffffffffffffffffffffffffffffffffffffffff160217905550565b606080606080606060006060806060806060600061387e614c02565b600960008f60001916600019168152602001908152602001600020975087805490506040519080825280602002602001820160405280156138ce5781602001602082028038833980820191505090505b50965087805490506040519080825280602002602001820160405280156139045781602001602082028038833980820191505090505b509550878054905060405190808252806020026020018201604052801561393a5781602001602082028038833980820191505090505b50945087805490506040519080825280602002602001820160405280156139705781602001602082028038833980820191505090505b50935087805490506040519080825280602002602001820160405280156139a65781602001602082028038833980820191505090505b509250600091505b8780549050821015613b8c576005600089848154811015156139cc57fe5b9060005260206000200154600019166000191681526020019081526020016000206101406040519081016040529081600082015460001916600019168152602001600182015460001916600019168152602001600282015460001916600019168152602001600382015460001916600019168152602001600482015460001916600019168152602001600582015460001916600019168152602001600682015460001916600019168152602001600782015460001916600019168152602001600882015481526020016009820154600019166000191681525050905080600001518783815181101515613abb57fe5b90602001906020020190600019169081600019168152505080602001518683815181101515613ae657fe5b90602001906020020190600019169081600019168152505080604001518583815181101515613b1157fe5b90602001906020020190600019169081600019168152505080606001518483815181101515613b3c57fe5b90602001906020020190600019169081600019168152505080608001518383815181101515613b6757fe5b90602001906020020190600019169081600019168152505081806001019250506139ae565b86868686869c509c509c509c509c50505050505050505091939590929450565b600080613bb7613fc8565b1515613bc257600080fd5b60011515600260003373ffffffffffffffffffffffffffffffffffffffff1673ffffffffffffffffffffffffffffffffffffffff16815260200190815260200160002060009054906101000a900460ff161515141515613c2157600080fd5b8a8a8a8a8a8a8a8a8a604051602001808a60001916600019168152602001896000191660001916815260200188600019166000191681526020018760001916600019168152602001866000191660001916815260200185600019166000191681526020018460001916600019168152602001838152602001826000191660001916815260200199505050505050505050506040516020818303038152906040526040518082805190602001908083835b602083101515613cf65780518252602082019150602081019050602083039250613cd1565b6001836020036101000a03801982511681845116808217855250505050505090500191505060405180910390209050610120604051908101604052808c6000191681526020018b6000191681526020018a600019168152602001896000191681526020018860001916815260200187600019168152602001866000191681526020018581526020018460001916815250600660008360001916600019168152602001908152602001600020600082015181600001906000191690556020820151816001019060001916905560408201518160020190600019169055606082015181600301906000191690556080820151816004019060001916905560a0820151816005019060001916905560c0820151816006019060001916905560e082015181600701556101008201518160080190600019169055905050600a60008c60001916600019168152602001908152602001600020819080600181540180825580915050906001820390600052602060002001600090919290919091509060001916905550600e819080600181540180825580915050906001820390600052602060002001600090919290919091509060001916905550809150509998505050505050505050565b60016020528060005260406000206000915054906101000a900460ff1681565b6007602052806000526040600020600091509050806000015490806001015490806002015490806003015490806004015490806005015490806006015490806007015490806008015490806009015490508a565b60008060009054906101000a900473ffffffffffffffffffffffffffffffffffffffff16905090565b613f62613fc8565b1515613f6d57600080fd5b6001600260008373ffffffffffffffffffffffffffffffffffffffff1673ffffffffffffffffffffffffffffffffffffffff16815260200190815260200160002060006101000a81548160ff02191690831515021790555050565b60008060009054906101000a900473ffffffffffffffffffffffffffffffffffffffff1673ffffffffffffffffffffffffffffffffffffffff163373ffffffffffffffffffffffffffffffffffffffff1614905090565b600a6020528160005260406000208181548110151561403a57fe5b90600052602060002001600091509150505481565b60036020528060005260406000206000915054906101000a900460ff1681565b614077613fc8565b151561408257600080fd5b6000600160008373ffffffffffffffffffffffffffffffffffffffff1673ffffffffffffffffffffffffffffffffffffffff16815260200190815260200160002060006101000a81548160ff02191690831515021790555050565b60608060608060606000606080606080606060006140f9614c71565b600b60008f60001916600019168152602001908152602001600020975087805490506040519080825280602002602001820160405280156141495781602001602082028038833980820191505090505b509650878054905060405190808252806020026020018201604052801561417f5781602001602082028038833980820191505090505b50955087805490506040519080825280602002602001820160405280156141b55781602001602082028038833980820191505090505b50945087805490506040519080825280602002602001820160405280156141eb5781602001602082028038833980820191505090505b50935087805490506040519080825280602002602001820160405280156142215781602001602082028038833980820191505090505b509250600091505b87805490508210156143ff5760076000898481548110151561424757fe5b906000526020600020015460001916600019168152602001908152602001600020610140604051908101604052908160008201546000191660001916815260200160018201546000191660001916815260200160028201546000191660001916815260200160038201546000191660001916815260200160048201546000191660001916815260200160058201546000191660001916815260200160068201546000191660001916815260200160078201546000191660001916815260200160088201548152602001600982015460001916600019168152505090508060a00151878381518110151561433657fe5b9060200190602002019060001916908160001916815250508060c00151868381518110151561436157fe5b9060200190602002019060001916908160001916815250508060e00151858381518110151561438c57fe5b90602001906020020190600019169081600019168152505080610100015184838151811015156143b857fe5b906020019060200201818152505080610120015183838151811015156143da57fe5b9060200190602002019060001916908160001916815250508180600101925050614229565b86868686869c509c509c509c509c50505050505050505091939590929450565b614427613fc8565b151561443257600080fd5b60018060008373ffffffffffffffffffffffffffffffffffffffff1673ffffffffffffffffffffffffffffffffffffffff16815260200190815260200160002060006101000a81548160ff02191690831515021790555050565b600c602052816000526040600020818154811015156144a757fe5b90600052602060002001600091509150505481565b60066020528060005260406000206000915090508060000154908060010154908060020154908060030154908060040154908060050154908060060154908060070154908060080154905089565b614512613fc8565b151561451d57600080fd5b6001600460008373ffffffffffffffffffffffffffffffffffffffff1673ffffffffffffffffffffffffffffffffffffffff16815260200190815260200160002060006101000a81548160ff02191690831515021790555050565b614580613fc8565b151561458b57600080fd5b6000600260008373ffffffffffffffffffffffffffffffffffffffff1673ffffffffffffffffffffffffffffffffffffffff16815260200190815260200160002060006101000a81548160ff02191690831515021790555050565b600d818154811015156145f557fe5b906000526020600020016000915090505481565b60108181548110151561461857fe5b906000526020600020016000915090505481565b614634613fc8565b151561463f57600080fd5b6000600460008373ffffffffffffffffffffffffffffffffffffffff1673ffffffffffffffffffffffffffffffffffffffff16815260200190815260200160002060006101000a81548160ff02191690831515021790555050565b6146a2613fc8565b15156146ad57600080fd5b6146b681614a34565b50565b600e818154811015156146c857fe5b906000526020600020016000915090505481565b60608060608060606000606080606080606060006146f8614b9d565b600a60008f60001916600019168152602001908152602001600020975087805490506040519080825280602002602001820160405280156147485781602001602082028038833980820191505090505b509650878054905060405190808252806020026020018201604052801561477e5781602001602082028038833980820191505090505b50955087805490506040519080825280602002602001820160405280156147b45781602001602082028038833980820191505090505b50945087805490506040519080825280602002602001820160405280156147ea5781602001602082028038833980820191505090505b50935087805490506040519080825280602002602001820160405280156148205781602001602082028038833980820191505090505b509250600091505b87805490508210156149f45760066000898481548110151561484657fe5b906000526020600020015460001916600019168152602001908152602001600020610120604051908101604052908160008201546000191660001916815260200160018201546000191660001916815260200160028201546000191660001916815260200160038201546000191660001916815260200160048201546000191660001916815260200160058201546000191660001916815260200160068201546000191660001916815260200160078201548152602001600882015460001916600019168152505090508060000151878381518110151561492357fe5b9060200190602002019060001916908160001916815250508060200151868381518110151561494e57fe5b9060200190602002019060001916908160001916815250508060400151858381518110151561497957fe5b906020019060200201906000191690816000191681525050806060015184838151811015156149a457fe5b906020019060200201906000191690816000191681525050806080015183838151811015156149cf57fe5b9060200190602002019060001916908160001916815250508180600101925050614828565b86868686869c509c509c509c509c50505050505050505091939590929450565b60046020528060005260406000206000915054906101000a900460ff1681565b600073ffffffffffffffffffffffffffffffffffffffff168173ffffffffffffffffffffffffffffffffffffffff1614151515614a7057600080fd5b8073ffffffffffffffffffffffffffffffffffffffff166000809054906101000a900473ffffffffffffffffffffffffffffffffffffffff1673ffffffffffffffffffffffffffffffffffffffff167f8be0079c531659141344cd1fd0a4f28419497f9722a3daafe3b4186f6b6457e060405160405180910390a3806000806101000a81548173ffffffffffffffffffffffffffffffffffffffff021916908373ffffffffffffffffffffffffffffffffffffffff16021790555050565b61014060405190810160405280600080191681526020016000801916815260200160008019168152602001600080191681526020016000801916815260200160008019168152602001600080191681526020016000801916815260200160008152602001600080191681525090565b610120604051908101604052806000801916815260200160008019168152602001600080191681526020016000801916815260200160008019168152602001600080191681526020016000801916815260200160008152602001600080191681525090565b61014060405190810160405280600080191681526020016000801916815260200160008019168152602001600080191681526020016000801916815260200160008019168152602001600080191681526020016000801916815260200160008152602001600080191681525090565b610140604051908101604052806000801916815260200160008019168152602001600080191681526020016000801916815260200160008019168152602001600080191681526020016000801916815260200160008019168152602001600081526020016000801916815250905600a165627a7a72305820506c584f0894628d9602eac5d038b2e9484a8f3e7909df040e6a44c539d9452e0029",
  "source": "pragma solidity ^0.4.24;\n\nimport \"./AccessControl.sol\";\n\ncontract VehicleVerification is Ownable {\n\n    struct showroomData {\n        bytes32 vin;\n        bytes32 ownerDetail;\n        bytes32 modelDetail;\n        bytes32 carCost;\n        bytes32 carLoanOrBankDetail;\n        bytes32 showroomName;\n        bytes32 showroomAddress;\n        bytes32 showroomId;\n        uint256 issuedDate;\n        bytes32 additionalDetail;\n    }\n\n    struct insuranceData {\n        bytes32 vin;\n        bytes32 insuranceNumber;\n        bytes32 numOfInsurance;\n        bytes32 insuranceDetail;\n        bytes32 insuranceId;\n        bytes32 insuranceCompanyName;\n        bytes32 insuranceCompanyAddress;\n        uint256 issuedDate;\n        bytes32 additionalDetail;\n    }\n\n    struct motorDeptData {\n        bytes32 vin;\n        bytes32 ownerName;\n        bytes32 regId;\n        bytes32 milesOnCar;\n        bytes32 modelDetail;\n        bytes32 numberPlate;\n        bytes32 motorDeptCity;\n        bytes32 motorDeptAddress;\n        uint256 issuedDate;\n        bytes32 additionalDetail;\n    }\n\n    struct mechanicData {\n        bytes32 vin;\n        bytes32 shopId;\n        bytes32 shopName;\n        bytes32 shopAddress;\n        bytes32 carDetail;\n        bytes32 workDescription;\n        bytes32 moneyCharged;\n        bytes32 typeOfWork;\n        uint256 issuedDate;\n        bytes32 additionalDetail;\n    }\n\n    //Saving addresses of data creators\n    mapping(address => bool) public ShowroomOwners;\n    mapping(address => bool) public InsuranceOwners;\n    mapping(address => bool) public MotorDeptOwners;\n    mapping(address => bool) public MechanicOwners;\n\n\n    // Mapping unique id of every record to Data\n    mapping(bytes32 => showroomData) public idToShowRoomData;\n    mapping(bytes32 => insuranceData) public idToInsuranceData;\n    mapping(bytes32 => motorDeptData) public idToMotorDeptData;\n    mapping(bytes32 => mechanicData) public idToMechanicData;\n\n    //Mapping vin to unique id of record\n    mapping(bytes32 => bytes32[]) public vinToShowroomDataId;\n    mapping(bytes32 => bytes32[]) public vinToInsuranceDataId;\n    mapping(bytes32 => bytes32[]) public vinToMotorDeptDataId;\n    mapping(bytes32 => bytes32[]) public vinToMechanicDataId;\n\n    // Saving unique ids of data\n    bytes32[] public showroomDataIds;\n    bytes32[] public insuranceDataIds;\n    bytes32[] public motorDeptDataIds;\n    bytes32[] public mechanicDataIds;\n\n    //Adding owner functions\n    function addShowroomOwner(address _addr) public onlyOwner {\n        ShowroomOwners[_addr] = true;\n    }\n\n    function addInsuranceOwner(address _addr) public onlyOwner {\n        InsuranceOwners[_addr] = true;\n    }\n\n    function addMotorDeptOwner(address _addr) public onlyOwner {\n        MotorDeptOwners[_addr] = true;\n    }\n\n    function addMechanicOwner(address _addr) public onlyOwner {\n        MechanicOwners[_addr] = true;\n    }\n\n    //Removing owner functions\n    function removeShowroomOwner(address _addr) public onlyOwner {\n        ShowroomOwners[_addr] = false;\n    }\n\n    function removeInsuranceOwner(address _addr) public onlyOwner {\n        InsuranceOwners[_addr] = false;\n    }\n\n    function removeMotorDeptOwner(address _addr) public onlyOwner {\n        MotorDeptOwners[_addr] = false;\n    }\n\n    function removeMechanicOwner(address _addr) public onlyOwner {\n        MechanicOwners[_addr] = false;\n    }\n\n    function addMechanicData(bytes32 _vin, bytes32 _shopId , bytes32 _shopName, bytes32 _shopAddress ,bytes32 _carDetail , bytes32 _workDescription, bytes32 _moneyCharged, bytes32 _typeOfWork, uint256 _issuedDate, bytes32 _additionalDetail) public onlyOwner returns (bytes32) {\n        require(MechanicOwners[msg.sender] == true);\n\n        bytes32 mechanicDataId = keccak256(abi.encodePacked(_vin, _shopId, _shopName, _shopAddress, _carDetail, _workDescription, _moneyCharged, _typeOfWork, _issuedDate, _additionalDetail));\n\n        idToMechanicData[mechanicDataId] = mechanicData(_vin, _shopId, _shopName, _shopAddress, _carDetail, _workDescription, _moneyCharged, _typeOfWork, _issuedDate, _additionalDetail);\n        vinToMechanicDataId[_vin].push(mechanicDataId);\n        mechanicDataIds.push(mechanicDataId);\n\n        return mechanicDataId;\n    }\n\n\n    function addMotorDeptData(bytes32 _vin, bytes32 _ownerName, bytes32 _regId, bytes32 _milesOnCar, bytes32 _modelDetail, bytes32 _numberPlate, bytes32 _motorDeptCity, bytes32 _motorDeptAddress, uint256 _issuedDate, bytes32 _additionalDetail) public onlyOwner returns (bytes32) {\n        require(MotorDeptOwners[msg.sender] == true);\n\n        bytes32 motorDeptDataId = keccak256(abi.encodePacked(_vin, _ownerName, _regId, _milesOnCar, _modelDetail, _numberPlate, _motorDeptCity, _motorDeptAddress, _issuedDate, _additionalDetail));\n\n        idToMotorDeptData[motorDeptDataId] = motorDeptData(_vin, _ownerName, _regId, _milesOnCar, _modelDetail, _numberPlate, _motorDeptCity, _motorDeptAddress, _issuedDate, _additionalDetail);\n        vinToMotorDeptDataId[_vin].push(motorDeptDataId);\n        motorDeptDataIds.push(motorDeptDataId);\n\n        return motorDeptDataId;\n    }\n\n    function addShowroomData( bytes32 _vin, bytes32 _ownerDetail, bytes32 _modelDetail, bytes32 _carCost, bytes32 _carLoanOrBankDetail, bytes32 _showroomName, bytes32 _showroomAddress, bytes32 _showroomId, uint256 _issuedDate, bytes32 _additionalDetail) public onlyOwner returns (bytes32) {\n        require(ShowroomOwners[msg.sender] == true);\n\n        bytes32 showroomDataId = keccak256(abi.encodePacked(_vin, _ownerDetail, _modelDetail, _carCost, _carLoanOrBankDetail, _showroomName, _showroomAddress , _showroomId, _issuedDate, _additionalDetail));\n\n        idToShowRoomData[showroomDataId] = showroomData(_vin, _ownerDetail, _modelDetail, _carCost, _carLoanOrBankDetail, _showroomName, _showroomAddress , _showroomId, _issuedDate, _additionalDetail);\n        vinToShowroomDataId[_vin].push(showroomDataId);\n        showroomDataIds.push(showroomDataId);\n\n        return showroomDataId;\n    }\n\n\n    function addInsuranceData(bytes32 _vin, bytes32 _insuranceNumber, bytes32 _numOfInsurance, bytes32 _insuranceDetail , bytes32 _insuranceId , bytes32 _insuranceCompanyName, bytes32 _insuranceCompanyAddress , uint256 _issuedDate, bytes32 _additionalDetail) public onlyOwner returns (bytes32) {\n        require(InsuranceOwners[msg.sender] == true);\n\n        bytes32 insuranceDataId = keccak256(abi.encodePacked( _vin,  _insuranceNumber, _numOfInsurance , _insuranceDetail , _insuranceId , _insuranceCompanyName, _insuranceCompanyAddress , _issuedDate,  _additionalDetail));\n\n        idToInsuranceData[insuranceDataId] = insuranceData(_vin,  _insuranceNumber, _numOfInsurance , _insuranceDetail , _insuranceId , _insuranceCompanyName, _insuranceCompanyAddress , _issuedDate,  _additionalDetail);\n        vinToInsuranceDataId[_vin].push(insuranceDataId);\n        insuranceDataIds.push(insuranceDataId);\n\n        return insuranceDataId;\n    }\n\n\n    function getMechanicDataByVin1(bytes32 _vin) public view returns (bytes32[], bytes32[], bytes32[], bytes32[] , bytes32[]) {\n        bytes32[] mechanicDataId = vinToMechanicDataId[_vin];\n\n        bytes32[] memory vin = new bytes32[](mechanicDataId.length);\n        bytes32[] memory shopId = new bytes32[](mechanicDataId.length);\n        bytes32[] memory shopName = new bytes32[](mechanicDataId.length);\n        bytes32[] memory shopAddress = new bytes32[](mechanicDataId.length);\n        bytes32[] memory carDetail = new bytes32[](mechanicDataId.length);\n\n        for (uint i = 0; i < mechanicDataId.length; i++) {\n            mechanicData memory data = idToMechanicData[mechanicDataId[i]];\n\n            vin[i] = data.vin;\n            shopId[i] = data.shopId;\n            shopName[i] = data.shopName;\n            shopAddress[i]= data.shopAddress;\n            carDetail[i] = data.carDetail;\n        }\n        return (vin, shopId, shopName, shopAddress, carDetail);\n    }\n\n\n    function getMechanicDataByVin2(bytes32 _vin) public view returns (bytes32[], bytes32[], bytes32[], uint256[], bytes32[]) {\n        bytes32[] mechanicDataId = vinToMechanicDataId[_vin];\n\n        bytes32[] memory workDescription = new bytes32[](mechanicDataId.length);\n        bytes32[] memory moneyCharged = new bytes32[](mechanicDataId.length);\n        bytes32[] memory typeOfWork = new bytes32[](mechanicDataId.length);\n        uint256[] memory issuedDate = new uint256[](mechanicDataId.length);\n        bytes32[] memory additionalDetail = new bytes32[](mechanicDataId.length);\n\n        for (uint i = 0; i < mechanicDataId.length; i++) {\n            mechanicData memory data = idToMechanicData[mechanicDataId[i]];\n\n            workDescription[i] = data.workDescription;\n            moneyCharged[i] = data.moneyCharged;\n            typeOfWork[i] = data.typeOfWork;\n            issuedDate[i] = data.issuedDate;\n            additionalDetail[i] = data.additionalDetail;\n        }\n        return (workDescription ,moneyCharged, typeOfWork, issuedDate, additionalDetail);\n    }\n\n    function getInsuranceDataByVin1(bytes32 _vin) public view returns (bytes32[], bytes32[], bytes32[], bytes32[], bytes32[]) {\n        bytes32[] insuranceDataId = vinToInsuranceDataId[_vin];\n\n        bytes32[] memory vin = new bytes32[](insuranceDataId.length);\n        bytes32[] memory insuranceNumber = new bytes32[](insuranceDataId.length);\n        bytes32[] memory numOfInsurance = new bytes32[](insuranceDataId.length);\n        bytes32[] memory insuranceDetail = new bytes32[](insuranceDataId.length);\n        bytes32[] memory insuranceId = new bytes32[](insuranceDataId.length);\n\n        for (uint i = 0; i < insuranceDataId.length; i++) {\n            insuranceData memory data = idToInsuranceData[insuranceDataId[i]];\n\n            vin[i] = data.vin;\n            insuranceNumber[i] = data.insuranceNumber;\n            numOfInsurance[i] = data.numOfInsurance;\n            insuranceDetail[i] = data.insuranceDetail;\n            insuranceId[i] = data.insuranceId;\n        }\n        return (vin, insuranceNumber ,numOfInsurance, insuranceDetail, insuranceId);\n    }\n\n    function getInsuranceDataByVin2(bytes32 _vin) public view returns (bytes32[], bytes32[],  uint256[], bytes32[]) {\n        bytes32[] insuranceDataId = vinToInsuranceDataId[_vin];\n\n\n        bytes32[] memory insuranceCompanyName = new bytes32[](insuranceDataId.length);\n        bytes32[] memory insuranceCompanyAddress = new bytes32[](insuranceDataId.length);\n        uint256[] memory issuedDate = new uint256[](insuranceDataId.length);\n        bytes32[] memory additionalDetail = new bytes32[](insuranceDataId.length);\n\n        for (uint i = 0; i < insuranceDataId.length; i++) {\n            insuranceData memory data = idToInsuranceData[insuranceDataId[i]];\n\n            insuranceCompanyName[i] = data.insuranceCompanyName;\n            insuranceCompanyAddress[i] = data.insuranceCompanyAddress;\n            issuedDate[i] = data.issuedDate;\n            additionalDetail[i] = data.additionalDetail;\n        }\n        return (insuranceCompanyName ,insuranceCompanyAddress, issuedDate, additionalDetail);\n    }\n\n\n\n\n    function getMotorDeptDataByVin1(bytes32 _vin) public view returns (bytes32[], bytes32[], bytes32[], bytes32[], bytes32[]) {\n        bytes32[] motorDeptDataId = vinToMotorDeptDataId[_vin];\n\n\n        bytes32[] memory vin = new bytes32[](motorDeptDataId.length);\n        bytes32[] memory ownerName = new bytes32[](motorDeptDataId.length);\n        bytes32[] memory regId = new bytes32[](motorDeptDataId.length);\n        bytes32[] memory milesOnCar = new bytes32[](motorDeptDataId.length);\n        bytes32[] memory modelDetail = new bytes32[](motorDeptDataId.length);\n\n        for (uint i = 0; i < motorDeptDataId.length; i++) {\n            motorDeptData memory data = idToMotorDeptData[motorDeptDataId[i]];\n\n            vin[i] = data.vin;\n            ownerName[i] = data.ownerName;\n            regId[i] = data.regId;\n            milesOnCar[i] = data.milesOnCar;\n            modelDetail[i] = data.modelDetail;\n        }\n        return (vin, ownerName, regId, milesOnCar, modelDetail);\n    }\n\n\n    function getMotorDeptDataByVin2(bytes32 _vin) public view returns (bytes32[], bytes32[], bytes32[] , uint256[], bytes32[]) {\n        bytes32[] motorDeptDataId = vinToMotorDeptDataId[_vin];\n\n        bytes32[] memory numberPlate = new bytes32[](motorDeptDataId.length);\n        bytes32[] memory motorDeptCity = new bytes32[](motorDeptDataId.length);\n        bytes32[] memory motorDeptAddress = new bytes32[](motorDeptDataId.length);\n        uint256[] memory issuedDate = new uint256[](motorDeptDataId.length);\n        bytes32[] memory additionalDetail = new bytes32[](motorDeptDataId.length);\n\n        for (uint i = 0; i < motorDeptDataId.length; i++) {\n            motorDeptData memory data = idToMotorDeptData[motorDeptDataId[i]];\n\n            numberPlate[i] = data.numberPlate;\n            motorDeptCity[i] = data.motorDeptCity;\n            motorDeptAddress[i] = data.motorDeptAddress;\n            issuedDate[i] = data.issuedDate;\n            additionalDetail[i] = data.additionalDetail;\n        }\n        return (numberPlate, motorDeptCity, motorDeptAddress , issuedDate, additionalDetail);\n    }\n\n\n\n\n    function getShowroomDataByVin1(bytes32 _vin) public view returns (bytes32[], bytes32[], bytes32[], bytes32[] ,bytes32[]) {\n        bytes32[] showroomDataId = vinToShowroomDataId[_vin];\n\n\n        bytes32[] memory vin = new bytes32[](showroomDataId.length);\n        bytes32[] memory ownerDetail = new bytes32[](showroomDataId.length);\n        bytes32[] memory modelDetail = new bytes32[](showroomDataId.length);\n        bytes32[] memory carCost = new bytes32[](showroomDataId.length);\n        bytes32[] memory carLoanOrBankDetail = new bytes32[](showroomDataId.length);\n\n\n        for (uint i = 0; i < showroomDataId.length; i++) {\n            showroomData memory data = idToShowRoomData[showroomDataId[i]];\n\n            vin[i] = data.vin;\n            ownerDetail[i] = data.ownerDetail;\n            modelDetail[i] = data.modelDetail;\n            carCost[i] = data.carCost;\n            carLoanOrBankDetail[i] = data.carLoanOrBankDetail;\n        }\n        return (vin, ownerDetail, modelDetail, carCost ,carLoanOrBankDetail);\n    }\n\n    function getShowroomDataByVin2(bytes32 _vin) public view returns (bytes32[], bytes32[], bytes32[] ,uint256[], bytes32[]) {\n        bytes32[] showroomDataId = vinToShowroomDataId[_vin];\n\n\n        bytes32[] memory showroomName = new bytes32[](showroomDataId.length);\n        bytes32[] memory showroomAddress = new bytes32[](showroomDataId.length);\n        bytes32[] memory showroomId = new bytes32[](showroomDataId.length);\n        uint256[] memory issuedDate = new uint256[](showroomDataId.length);\n        bytes32[] memory additionalDetail = new bytes32[](showroomDataId.length);\n\n        for (uint i = 0; i < showroomDataId.length; i++) {\n            showroomData memory data = idToShowRoomData[showroomDataId[i]];\n\n            showroomName[i] = data.showroomName;\n            showroomAddress[i] = data.showroomAddress;\n            showroomId[i] = data.showroomId;\n            issuedDate[i] = data.issuedDate;\n            additionalDetail[i] = data.additionalDetail;\n        }\n        return (showroomName, showroomAddress, showroomId, issuedDate, additionalDetail);\n    }\n}",
  "sourcePath": "/home/syed-fahad-hussain/Documents/blockchain/Ethereum/projects/Vehicle-Verification-Blockchain-master/Admin/contracts/VehicleVerification.sol",
  "compiler": {
    "name": "solc",
    "version": "0.4.25+commit.59dbf8f1.Emscripten.clang"
  },
  "schemaVersion": "2.0.2",
  "updatedAt": "2019-01-29T06:21:08.420Z"
}